{
  "contractName": "ThirdAngle",
  "abi": [
    {
      "constant": false,
      "inputs": [
        {
          "internalType": "int256",
          "name": "angle1",
          "type": "int256"
        },
        {
          "internalType": "int256",
          "name": "angle2",
          "type": "int256"
        }
      ],
      "name": "otherAngle",
      "outputs": [],
      "payable": false,
      "stateMutability": "nonpayable",
      "type": "function"
    },
    {
      "constant": true,
      "inputs": [],
      "name": "getThird",
      "outputs": [
        {
          "internalType": "int256",
          "name": "",
          "type": "int256"
        }
      ],
      "payable": false,
      "stateMutability": "view",
      "type": "function"
    }
  ],
  "bytecode": "0x608060405234801561001057600080fd5b5060e28061001f6000396000f3fe6080604052348015600f57600080fd5b506004361060325760003560e01c80631c87dd1d146037578063f0d088f1146053575b600080fd5b603d6088565b6040518082815260200191505060405180910390f35b608660048036036040811015606757600080fd5b8101908080359060200190929190803590602001909291905050506091565b005b60008054905090565b60008290506000829050808260b403036000819055505050505056fea265627a7a72315820bd61ab0684fe2a932f903d3962bd5403989cca7dd65acd078cffe6b874ff9c1f64736f6c63430005100032",
  "source": "pragma solidity >=0.4.25 <0.7.0;\n\ncontract ThirdAngle {\n  int third;\n  function otherAngle(int angle1, int angle2) public {\n    // TODO your code here\n    int a1 = angle1;\n    int a2 = angle2;\n    third = 180 - a1 - a2;\n  }\n  function getThird() public view returns (int) {\n      return third;\n  }\n}",
  "sourcePath": "/Users/cooper/fpt_code/metacoin-box/contracts/thirdAngle.sol",
  "compiler": {
    "name": "solc",
    "version": "0.5.16+commit.9c3226ce.Emscripten.clang"
  },
  "schemaVersion": "3.1.0",
  "updatedAt": "2020-05-25T05:11:01.776Z",
  "devdoc": {
    "methods": {}
  },
  "userdoc": {
    "methods": {}
  }
}